:10000000020CAEE4F59153B1BF53B2BF900005F0BE
:10001000A31204FA0001C2007F007E367D6E7C01CF
:100020001205EA439802D20C53A8EF22E4F591534B
:10003000C0BF22020BC3E508240DF582E43400F5AD
:1000400083E005082290000A30070390000DE47554
:10005000F0011205A402055E2000E97F2ED2008087
:1000600018EF540F2490D43440D4FF30040BEF2405
:10007000BFB41A0050032461FFE5096002150905A9
:100080000CE50C7002050B30070E90000AE475F0C9
:10009000011205A4EF02039B020C477403D20780F0
:1000A00003E4C207F50890000A1205BBE4F509F560
:1000B0000BF50CE50960077F2012007980F5750AC1
:1000C000FFC201C200C202C203C205C206C20812B8
:1000D0000045FF700D3007057F0012008AAF0CAE9F
:1000E0000B22B4255FC2D5C204120045FF24D0B450
:1000F0000A00501A75F00A780930D50508B6FF01D4
:1001000006C6A426F620D5047002D20380D924CFD7
:10011000B41A00EF5004C2E5D20402028BD201806F
:10012000C6D20080C0D20280BCD2D580BAD20580AF
:10013000B47F201200792002077401B5090040F154
:10014000120036FF1200790200B3D208D206809561
:10015000120036FB120036FA120036F94A4B7006CE
:10016000795C7A037BFF20022EE509602A7E008EEF
:100170008275830012057760060EEE650A70F0C284
:10018000D5EBC0E0EAC0E0E9C0E0EE1202D2D0E078
:10019000F9D0E0FAD0E0FB12055EFF60AAEBC0E008
:1001A000EAC0E0E9C0E0120079D0E02401F9D0E033
:1001B0003400FAD0E0FBE50A0460DCD50AD9808778
:1001C0007BFF7A0279CED202809C79108002790876
:1001D000C206C2088008D2D5790A8004790AC2D53D
:1001E000E50A047002F50AE4FAFDFEFF120036FC8F
:1001F0007B08200113120036FD7B1030000A12002C
:1002000036FE120036FF7B20EC3382D592D5501398
:10021000C3E43000069FFFE49EFEE42001039DFD41
:10022000E49CFCE4CBF8C201EC700CCFCECDCCE862
:1002300024F8F870F38017C3EF33FFEE33FEED338D
:10024000FDEC33FCEB33FB994002FB0FD8E9EB30BC
:100250000105F8D0E0C448B201C0E00AEC4D4E4FB1
:1002600078207B0070C2EAB50A0040BCC0E01202F0
:10027000D4D0F0D0E0200104C4C0E0C4B201C0F08A
:10028000120062D0F0D5F0EB0200B31205C40150A9
:100290005301CA5801214C011D4201CE4F01D644E1
:1002A00001D64901364301DC5501C04601C0450174
:1002B000C047037C5001252D01292E014C2B012D17
:1002C00023014A2003652A00E548000001443F3F1E
:1002D0003F00790AA2D5200314300509B9100204A1
:1002E00004B9080104A2D5200602500104200268C6
:1002F0009202B509005034C0E07F203003197F30EE
:10030000A20272067205500F12032BC202C206C26D
:1003100005C2087F30800F300503E9C0E012007984
:10032000300503D0E0F9D0E0B509CC3005177F30B7
:10033000B9100C1200797F583004077F788003B918
:1003400008031200793002057F2D0200797F2020FA
:1003500008F87F2B2006F322920280CF286E756C5E
:100360006C2900D2011200363001F8C20178093040
:10037000D50108F60200E52D5043495812003624F5
:1003800003B405004001E49003779312006A743AC5
:1003900012006AD2037509040201CABB01068982F0
:1003A0008A83F0225002F722BBFE01F322E88FF08D
:1003B000A4CC8BF0A42CFCE98EF0A42CFC8AF0EDEC
:1003C000A42CFCEA8EF0A4CDA8F08BF0A42DCC38A0
:1003D00025F0FDE98FF0A42CCD35F0FCEB8EF0A4D8
:1003E000FEA9F0EB8FF0A4CFC5F02ECD39FEE43C92
:1003F000FCEAA42DCE35F0FDE43CFC2275F0087536
:100400008200EF2FFFEE33FECD33CDCC33CCC5824F
:1004100033C5829BED9AEC99E58298400CF582EE0B
:100420009BFEED9AFDEC99FC0FD5F0D6E4CEFBE4F3
:10043000CDFAE4CCF9A88222B800C1B90059BA00BB
:100440002DEC8BF084CFCECDFCE5F0CBF97818EF16
:100450002FFFEE33FEED33FDEC33FCEB33FB10D717
:1004600003994004EB99FB0FD8E5E4F9FA227818D8
:10047000EF2FFFEE33FEED33FDEC33FCC933C91033
:10048000D7059BE99A4007EC9BFCE99AF90FD8E065
:10049000E4C9FAE4CCFB2275F010EF2FFFEE33FE37
:1004A000ED33FDCC33CCC833C810D7079BEC9AE8AA
:1004B00099400AED9BFDEC9AFCE899F80FD5F0DA2B
:1004C000E4CDFBE4CCFAE4C8F922EB9FF5F0EA9E18
:1004D00042F0E99D42F0E89C45F022E8600FECC351
:1004E00013FCED13FDEE13FEEF13FFD8F122ECF039
:1004F000A3EDF0A3EEF0A3EFF022A8828583F0D065
:1005000083D082120511120511120511120511E492
:1005100073E493A3C583C5F0C583C8C582C8F0A39F
:10052000C583C5F0C583C8C582C822D083D082F8F0
:10053000E4937012740193700DA3A393F874019364
:10054000F5828883E473740293B5F00674039368AC
:1005500060E9A3A3A3A380D88A838982E473BB0143
:100560000689828A83E0225002E722BBFE02E32250
:1005700089828A83E49322BB010CE58229F582E516
:10058000833AF583E0225006E92582F8E622BBFE95
:1005900006E92582F8E222E58229F582E5833AF52B
:1005A00083E49322F8E0FBA3A3E0F925F0F0E582D1
:1005B000158270021583E0FA38F022EBF0A3EAF01E
:1005C000A3E9F022D083D082F8E4937012740193EF
:1005D000700DA3A393F8740193F5828883E4737478
:1005E00002936860EFA3A3A380DF9000011204EEE2
:1005F000E4F591900005E01460541470030206DCE9
:100600002402600302076375985043892043878062
:10061000E4F591438E10F59153C4DF7B10FAF9F89D
:10062000900001E0FCA3E0FDA3E0FEA3E0FF1204C4
:1006300038900006E0F8A3E0F9A3E0FAA3E0FB128B
:100640000438EFF404F58D43884043A810227598D0
:100650005043878053C4F8E4F59143C4207B10FADB
:10066000F9F8900001E0FCA3E0FDA3E0FEA3E0FFA9
:10067000120438900006E0F8A3E0F9A3E0FAA3E042
:10068000FB120438C3E49FFFE49EFE74019DFDE469
:100690009CFC78081204DB8FC6E47B10FAF9F89012
:1006A0000001E0FCA3E0FDA3E0FEA3E0FF1204389C
:1006B000900006E0F8A3E0F9A3E0FAA3E0FB12043F
:1006C00038C3E49FFFE49EFE74019DFDE49CFCEFB3
:1006D000E48FC5F59143C40843A8102275F85075FE
:1006E000C480E47B10FAF9F8900001E0FCA3E0FD7F
:1006F000A3E0FEA3E0FF120438900006E0F8A3E0B8
:10070000F9A3E0FAA3E0FB120438C3E49FFFE49EE0
:10071000FE74019DFDE49CFC78081204DB8FC6E4A6
:100720007B10FAF9F8900001E0FCA3E0FDA3E0FEE5
:10073000A3E0FF120438900006E0F8A3E0F9A3E07C
:10074000FAA3E0FB120438C3E49FFFE49EFE7401A9
:100750009DFDE49CFCEFE48FC5F59143C408F59141
:10076000439C0122E4F591EF24F9600C14600E24FF
:1007700002700D75A638800875A630800375A63006
:10078000E4F591A2AF9210C2AF75C7AA75C75543E1
:100790009F01A21092AFF5A775AF04F591A2AF9299
:1007A00010C2AF75C7AA75C75543A401A21092AF76
:1007B00085AE0805A6F591A2AF9210C2AF75C7AA83
:1007C00075C75543A401A21092AF85AE09EF24F876
:1007D0007076E50825E0FFE50954012FFF54C0F5C8
:1007E0000BEF543FF50A74F22FFF75AF0C75A6019D
:1007F000E4F5A7F591A2AF9210C2AF75C7AA75C76D
:100800005543A401A21092AFAEAEEE644B600EAEA3
:10081000AEEE64526007AEAEEE64537026E50AC3D6
:10082000940F748094805017E50BFD6440600AEDCE
:1008300064806005ED64C0700A74F22FFF80047458
:10084000FC2FFFEFC313F50875C7AA75C7558508B8
:100850008475C7AA75C755850985E4F591A2AF923D
:1008600010C2AF75C7AA75C755539FFEA21092AFAD
:100870005387EF229000011204EEE4F591F59153B5
:100880008EF7F5915389F04389017B407A42790FC5
:10089000F8900001E0FCA3E0FDA3E0FEA3E0FF125E
:1008A0000438A804A905AA06AB07900007E0FEA338
:1008B000E0FFE4FCFD1203ADE47B0CFAF9F812044E
:1008C00038C374FF9FFF74FF9EFEE49DFDE49CFC13
:1008D000EFE4900009EFF07B407A42790F780090C6
:1008E0000001E0FCA3E0FDA3E0FEA3E0FF1204385A
:1008F000A804A905AA06AB07900007E0FEA3E0FF45
:10090000E4FCFD1203ADE47B0CFAF9F8120438C3E1
:1009100074FF9FFF74FF9EFEE49DFDE49CFC78083D
:100920001204DB900005E07002A3E060249000094F
:10093000E0F58A8F8C438810308DFD5388DF538813
:10094000EF900006E024FFF0900005E034FFF08017
:10095000D2E4F58AF58C22900001EEF0A3EFF0A32B
:10096000EBF0A3EAF0A3E9F0A31204FA0000000000
:10097000C20A90003874FFF0A3740BF0A37456F011
:10098000900001E0FFA3E0900034CFF0A3EFF0E48B
:10099000F5917BFF7A0C79DF1200A143C020900013
:1009A00006E0FCA3E0FDA3E0FEA3E02401FFE43E9B
:1009B000FEE43DFDE43CFC9000061204EE300A1714
:1009C00090003BE0FF900003E0FBA3E0FAA3E0F916
:1009D000EF12039B7F01227FA07E867D017C009029
:1009E0000006E0F8A3E0F9A3E0FAA3E0FBD31204C9
:1009F000CA40AB7F0022900001EEF0A3EFF0A3ED20
:100A0000F0A31204FA0000000090003874FFF0A375
:100A1000740AF0A374E6F0900001E0FFA3E09000F8
:100A200036CFF0A3EFF0900003E090003CF043C01D
:100A300020900004E0FCA3E0FDA3E0FEA3E024017D
:100A4000FFE43EFEE43DFDE43CFC9000041204EEB5
:100A5000300B037F01227FA07E867D017C00900009
:100A600004E0F8A3E0F9A3E0FAA3E0FBD31204CA80
:100A700040BF7F00227F061207641200037BFF7ACB
:100A80000C79FB1200A1120C087D55E4FFFE12093F
:100A9000F6EF6401704A900005F0A37405F0A374AA
:100AA00003F0A374E8F07F007E367D6E7C011208AF
:100AB000747B017A007900E4FFFE120957EF6401AC
:100AC000701E900000E06455700DF5917BFF7A0D6B
:100AD00079121200A180097BFF7A0D79311200A1F1
:100AE00012002C80FE22C091E4F591AFBDEF70059D
:100AF00043C010805BAFBDEF6408700853C0DF7562
:100B0000BCA0804CAFBDEF6418700E900034E0F5CF
:100B1000BC9000327401F08037AFBDEF64287030B4
:100B2000900032E06011900036E0A3E0F5BCE49064
:100B30000032F0A3F08019900033E0700E90003C7A
:100B4000E0F5BC900033E004F08005D20B43C01008
:100B5000120C92D09122C091E4F591AFBDEF24F830
:100B6000601D24F8603F24F8601D24F0602324E811
:100B7000603B24F0603C2450704343C010803E53DF
:100B8000C0DF75BCA08036900034E0F5BCD209808F
:100B90002C30090C900034E0A3E0F5BCC209801DA4
:100BA00043C020801853C0DF75BCA1801043C0042F
:100BB000800B90003BE5BCF043C010D20A120C92AF
:100BC000D09122C0E0C0F0C083C082C0D075D000F8
:100BD000C000C001C002C003C004C005C006C007F9
:100BE000900038E0A3E0FAA3E0F9120558D007D04E
:100BF00006D005D004D003D002D001D000D0D0D090
:100C000082D083D0F0D0E0327F06120764E4F59101
:100C100043B30843B408F59143B31043B41075913E
:100C20000143B30875910143B3109000051204FA13
:100C3000000186A07F007E367D6E7C01120C6E7FE7
:100C400001120CC8D2AF22EFB40A07740D120C5275
:100C5000740A309811A899B8130CC2983098FDA85E
:100C600099C298B811F63099FDC299F59922E4F528
:100C7000917B04FAF9F8120438900005E0F8A3E03B
:100C8000F9A3E0FAA3E0FB120438EF14F5BE43C069
:100C9000402253C0F7E5C030E31353C0F7E5C0303E
:100CA000E3F353C0BF43C04053C0F780E822787FCE
:100CB000E4F6D8FD9000007FFF7E08E4F0A3DFFC9F
:100CC000DEFA758190020A75E4F591EF600A1470FE
:100CD0000DE4F591439B0122E4F591539BFE220A1A
:100CE000205265636569766520646174612066726F
:100CF0006F6D206E32344C433634000A2049324343
:100D000020454550524F4D20696E7469616C2E2EFE
:100D10002E000A20454550524F4D20777269746568
:100D200020616E64207265616420506173732120BC
:0A0D3000000A204641494C21200032
:00000001FF
