:1000000002180B900004EFF0A3EDF0900004E0FF65
:10001000C4540FFF1216AA900004E0FFA3E0FD12E3
:1000200016AA220211E37F287E001212E1E4FD7F6E
:10003000031216AA7F057E001212E1E4FD7F03126F
:1000400016AA7F017E001212E1E4FD7F031216AAB8
:10005000E4FD7F021216AA7F2812171D7F0C1217CB
:100060001D7F0612171D7F0112171D227591022098
:09007000A4047F0180027F00223C
:10007B00021262900006EFF0FD7E007FC912134C56
:10008B00EF700302044C9000C9E0FF7E0064016036
:10009B0006EF600302044CEF4E70047F0180027F79
:1000AB000090000AEFF09000CAE0FF900007F0FD0F
:1000BB009000CBE0FEA3E0FBEEEBFF90000BEEF02D
:1000CB00A3EFF0ED64036003020211900006E064FD
:1000DB0008600302044C9000CDE0601490000AE02D
:1000EB00600302044C900007E0FF7D031217F1221E
:1000FB009000CEE0900008F090000AE0600302044C
:10010B004C900008E0602FD3940D7480948050269F
:10011B0090000BE0FEA3E0FFC3940DEE940050168D
:10012B00900008E0FD7C00EF2DFFEC3EFED3EF943A
:10013B000DEE9400400B900007E0FF7D021217F1CB
:10014B00229000FD7401F0900007E09000FEF0900B
:10015B000008E025E09000FFF0E4900009F090002B
:10016B0008E0F9A3E0FFC39940030202017E00906F
:10017B00000BE0FCA3E0FD2FFFEE3CFEC3EF94036E
:10018B00EE9400501674962FF58274003EF583E0C2
:10019B00FF90000DE4F0A3EFF08028900009E07EC3
:1001AB00002DFFEE3CFEEF25E0FFEE33FE742D2F0E
:1001BB00F58274013EF583E0FFA3E090000DCFF0D4
:1001CB00A3EFF090000DE0FCA3E0FDECFF90000925
:1001DB00E0FE25E02400F582E43401F583EFF0EE38
:1001EB0025E02401F582E43401F583EDF09000095C
:1001FB00E004F00201697C007DFDE925E02403FBAE
:10020B007F0212103E22900007E064066003020298
:10021B00A5900006E06408600302044C9000CDE05A
:10022B00FEA3E0FDEEEDFF90000DEEF0A3EFF0C3AB
:10023B0090000CE0940390000BE0940040149000AD
:10024B000AE0600302044C900007E0FF7D021217E6
:10025B00F122D390000EE0940190000DE094004049
:10026B001490000AE0600302044C900007E0FF7D4D
:10027B00031217F12290000BE0A3E0FFA3E0FCA315
:10028B00E0FD1213B390000AE0600302044C7C0003
:10029B007DC97B067F0212103E22900007E064109E
:1002AB00600302043C900006E0C3940974809480C0
:1002BB00500302044C9000CDE0FEA3E0FDEEEDFFF9
:1002CB0090000FEEF0A3EFF09000CFE0900008F05D
:1002DB00EF4E605790000FE0FEA3E0FFD39403EEC8
:1002EB0094005047EF25E0FFEE33FE900008E0FD51
:1002FB007A00B50736EAB50632ED2409FF90000601
:10030B00E0B5072790000BE0FEA3E0FFC39403EEDC
:10031B009400501790000FE0FCA3E0FDEF2DFFEED3
:10032B003CFED3EF9403EE9400401490000AE0607F
:10033B000302044C900007E0FF7D021217F122E448
:10034B00900009F090000FE0A3E0FF900009E0FDA2
:10035B00C39F504BED25E024D0F582E43400F583A8
:10036B00E0FEED25E024D1F582E43400F583E0FDD9
:10037B00EEEDFF90000DEEF0A3EFF0D39401EE94B1
:10038B0000401490000AE0600302044C900007E068
:10039B00FF7D031217F122900009E004F080A5E421
:1003AB00900009F090000FE0A3E0FF900009E0FB44
:1003BB00C39F503EE0FD25E024D0F582E43400F5E8
:1003CB0083E0FEED25E024D1F582E43400F583E0F3
:1003DB00FDEEEDFF90000DEEF0FCA3EFF090000BA7
:1003EB00E0A3E0FFEB2FFF1213B3900009E004F042
:1003FB0080B290000AE070499000FD04F090000775
:10040B00E09000FEF090000BE0FCA3E0FDEC900010
:10041B00FFF0A3EDF090000FE0FCA3E0FDEC9001EA
:10042B0001F0A3EDF07C007DFD7B067F0212103EF8
:10043B002290000AE0700A900007E0FF7D0112177E
:10044B00F122BB010689828A83E0225002E722BB9C
:10045B00FE02E32289828A83E49322BB010CE582AC
:10046B0029F582E5833AF583E0225006E92582F8E7
:10047B00E622BBFE06E92582F8E222E58229F58217
:10048B00E5833AF583E49322BB010689828A83F0E4
:10049B00225002F722BBFE01F322F8BB010DE582CD
:1004AB0029F582E5833AF583E8F0225006E92582A7
:1004BB00C8F622BBFE05E92582C8F222A3F8E0C5E7
:1004CB00F025F0F0E582158270021583E0C838F054
:1004DB00E822E88FF0A4CC8BF0A42CFCE98EF0A4DE
:1004EB002CFC8AF0EDA42CFCEA8EF0A4CDA8F08BAA
:1004FB00F0A42DCC3825F0FDE98FF0A42CCD35F0F0
:10050B00FCEB8EF0A4FEA9F0EB8FF0A4CFC5F02E80
:10051B00CD39FEE43CFCEAA42DCE35F0FDE43CFCE9
:10052B002275F008758200EF2FFFEE33FECD33CD31
:10053B00CC33CCC58233C5829BED9AEC99E582987E
:10054B00400CF582EE9BFEED9AFDEC99FC0FD5F07D
:10055B00D6E4CEFBE4CDFAE4CCF9A88222B800C1F4
:10056B00B90059BA002DEC8BF084CFCECDFCE5F061
:10057B00CBF97818EF2FFFEE33FEED33FDEC33FCA8
:10058B00EB33FB10D703994004EB99FB0FD8E5E451
:10059B00F9FA227818EF2FFFEE33FEED33FDEC3333
:1005AB00FCC933C910D7059BE99A4007EC9BFCE9C2
:1005BB009AF90FD8E0E4C9FAE4CCFB2275F010EFFE
:1005CB002FFFEE33FEED33FDCC33CCC833C810D741
:1005DB00079BEC9AE899400AED9BFDEC9AFCE89995
:1005EB00F80FD5F0DAE4CDFBE4CCFAE4C8F922E855
:1005FB00600FECC313FCED13FDEE13FEEF13FFD8EE
:10060B00F122ECF0A3EDF0A3EEF0A3EFF022A88221
:10061B008583F0D083D0821206301206301206305A
:10062B00120630E473E493A3C583C5F0C583C8C534
:10063B0082C8F0A3C583C5F0C583C8C582C822D0C4
:10064B0083D082F8E4937012740193700DA3A3937B
:10065B00F8740193F5828883E473740293B5F00602
:10066B007403936860E9A3A3A3A380D8900001123D
:10067B00060DE4F591900005E0146054147003022C
:10068B000769240260030207F075985043892043E1
:10069B008780E4F591438E10F59153C4DF7B10FAFC
:1006AB00F9F8900001E0FCA3E0FDA3E0FEA3E0FF5E
:1006BB00120568900006E0F8A3E0F9A3E0FAA3E0C6
:1006CB00FB120568EFF404F58D43884043A8102214
:1006DB0075985043878053C4F8E4F59143C4207B4D
:1006EB0010FAF9F8900001E0FCA3E0FDA3E0FEA3F3
:1006FB00E0FF120568900006E0F8A3E0F9A3E0FA2A
:10070B00A3E0FB120568C3E49FFFE49EFE74019D0A
:10071B00FDE49CFC78081205FA8FC6E47B10FAF90D
:10072B00F8900001E0FCA3E0FDA3E0FEA3E0FF12C4
:10073B000568900006E0F8A3E0F9A3E0FAA3E0FB5C
:10074B00120568C3E49FFFE49EFE74019DFDE49CCB
:10075B00FCEFE48FC5F59143C40843A8102275F84C
:10076B005075C480E47B10FAF9F8900001E0FCA30B
:10077B00E0FDA3E0FEA3E0FF120568900006E0F8A1
:10078B00A3E0F9A3E0FAA3E0FB120568C3E49FFF23
:10079B00E49EFE74019DFDE49CFC78081205FA8F23
:1007AB00C6E47B10FAF9F8900001E0FCA3E0FDA38E
:1007BB00E0FEA3E0FF120568900006E0F8A3E0F965
:1007CB00A3E0FAA3E0FB120568C3E49FFFE49EFEDF
:1007DB0074019DFDE49CFCEFE48FC5F59143C408C7
:1007EB00F591439C0122900000EBF0A3EAF0A3E902
:1007FB00F0E4F5919000F9E06046900091E0C3942D
:10080B0004748094804039A2AFE433900005F0C2A9
:10081B00AF9000F9E0900003F090012DE090000400
:10082B00F0E49000F9F090012DF0900005E024FF2A
:10083B0092AF900004E07008900003E0FF120EEA04
:10084B009000FAE06046900092E0C39404748094A8
:10085B00804039A2AFE433900005F0C2AF9000FAAC
:10086B00E0900003F090012FE0900004F0E4900082
:10087B00FAF090012FF0900005E024FF92AF90006A
:10088B0004E07008900003E0FF12007E900147E047
:10089B006033C39000FCE094649000FBE094005044
:1008AB000EA3E004F070069000FBE004F0803DE442
:1008BB00900147F09000F9F090012DF0900095F029
:1008CB0012173D8027C3900132E094FA900131E07A
:1008DB009400500EA3E004F07006900131E004F098
:1008EB00800AE4900131F0A3F01214D3900091E050
:1008FB00C39404748094805003E004F0900092E061
:10090B00C39404748094805003E004F0900000E0E2
:10091B00FBA3E0FAA3E0F9900002E41204A5900017
:10092B0003E41204A590012EE0120493900130E031
:10093B00FF900000E0FBA3E0FAA3E0F9900001EFC9
:10094B001204A52253A87FE4F59143AC8053AD7FED
:10095B00F59153ACBF53ADBFF59153B1BF43B2400B
:10096B00F59143B18053B27F75910243A108759104
:10097B000253A1FB75910243A10275910253A1FE93
:10098B00F5919000057402F0A31206190000258062
:10099B007F007E367D6E7C01120677E4900005F0B9
:1009AB00A3120619000025807F007E367D6E7C0128
:1009BB0012067775F8D07598D0C2F9C299C2F8C2F1
:1009CB0098E490012EF0900130F0900093F0A3F09A
:1009DB00FD7F01121629E4FD7F02121629E4FD7F2B
:1009EB00011216F8E4FD7F021216F8E4900000F0F5
:1009FB00900000E0FFC3940A748094805018EF2598
:100A0B00E02433F582E43401F583E4F0A3F09000A5
:100A1B0000E004F080DAE4900000F0900000E0C306
:100A2B009403748094805021E0FF2496F582E43483
:100A3B0000F583E4F0EF04FF7B787A00E4FD1215F8
:100A4B0011900000E004F080D2E49000F9F0A3F0E4
:100A5B00900091F0A3F090012DF090012FF09001F8
:100A6B0047F0900131F0A374FAF0E49000FBF0A38F
:100A7B00F0900095F0D2AF22E4F591EF24F9600CE1
:100A8B0014600E2402700D75A638800875A6308090
:100A9B000375A630E4F591A2AF9203C2AF75C7AA56
:100AAB0075C755439F01A20392AFF5A775AF04F528
:100ABB0091A2AF9203C2AF75C7AA75C75543A401E4
:100ACB00A20392AF85AE0805A6F591A2AF9203C221
:100ADB00AF75C7AA75C75543A401A20392AF85AEE4
:100AEB0009EF24F87076E50825E0FFE50954012F9E
:100AFB00FF54C0F50BEF543FF50A74F22FFF75AF9F
:100B0B000C75A601E4F5A7F591A2AF9203C2AF75E0
:100B1B00C7AA75C75543A401A20392AFAEAEEE644C
:100B2B004B600EAEAEEE64526007AEAEEE64537029
:100B3B0026E50AC3940F748094805017E50BFD646F
:100B4B0040600AED64806005ED64C0700A74F22F9A
:100B5B00FF800474FC2FFFEFC313F50875C7AA754C
:100B6B00C75585088475C7AA75C755850985E4F5EA
:100B7B0091A2AF9203C2AF75C7AA75C755539FFE1B
:100B8B00A20392AF5387EF22121878C2B4C2B3C23A
:100B9B00A5C281D2B0D297C2A1C2A2C2A3E4F591E1
:100BAB0053B1FE43B201F59153B1FD43B202F5913E
:100BBB0053B1F743B208F59153B1EF43B210F5912E
:100BCB0053B1DF43B220F59153B3FE43B401F5911A
:100BDB0053B3FD43B402F59153B37F43B480759186
:100BEB00025389FD438A027591025389FB438A04A0
:100BFB007591025389F7438A087591025389DF4334
:100C0B008A20F59153ACFE43AD01F59153ACF743FC
:100C1B00AD08F59153ACEF43AD10F59143AC0253D6
:100C2B00ADFDF59143AC0453ADFBF59143AC2053B3
:100C3B00ADDF759102438910538AEFF59143AC8078
:100C4B0053AD7FF59153ACBF53ADBFF59153B1BFCE
:100C5B0043B240F59143B18053B27FF59143B30852
:100C6B0043B408F59143B31043B410F591229000AF
:100C7B001712060DE4F591F591538EF7F591538903
:100C8B00F04389017B407A42790FF8900017E0FC22
:100C9B00A3E0FDA3E0FEA3E0FF120568A804A905ED
:100CAB00AA06AB0790001DE0FEA3E0FFE4FCFD12DB
:100CBB0004DDE47B0CFAF9F8120568C374FF9FFF9F
:100CCB0074FF9EFEE49DFDE49CFCEFE490001FEF9F
:100CDB00F07B407A42790F7800900017E0FCA3E09C
:100CEB00FDA3E0FEA3E0FF120568A804A905AA0670
:100CFB00AB0790001DE0FEA3E0FFE4FCFD1204DD5A
:100D0B00E47B0CFAF9F8120568C374FF9FFF74FFBC
:100D1B009EFEE49DFDE49CFC78081205FA90001BF6
:100D2B00E07002A3E0602490001FE0F58A8F8C43F3
:100D3B008810308DFD5388DF5388EF90001CE02422
:100D4B00FFF090001BE034FFF080D2E4F58AF58CC5
:100D5B0022900000EBF0A3EAF0A3E9F07F5012160B
:100D6B00D1900000E0FBA3E0FAA3E0F9EF120493AB
:100D7B007F511216D1900000E0FBA3E0FAA3E0F93B
:100D8B00900001EF1204A5900002E41204A590005C
:100D9B0003E41204A5900004E41204A5900005E4FA
:100DAB001204A512044D6029900000E0FBA3E0FAA9
:100DBB00A3E02404F9E43AFA12140DEF6013900047
:100DCB0000E0FBA3E0FAA3E0F99000027401120427
:100DDB00A5900000E0FBA3E0FAA3E0F9900001125C
:100DEB00046660377B017A00790390000F7407F07B
:100DFB007D027F51120F98EF6021900003E0547F2A
:100E0B00FF900000E0FBA3E0FAA3E0F9900005EFF0
:100E1B001204A590000374011204A5227B017A0031
:100E2B0079291207F112188EAD077F011216F812ED
:100E3B00188EAD077F021216F87F0312154DAD0702
:100E4B00EF600D90002DE07007900026E06401F03C
:100E5B0090002DEDF0C3900028E094F4900027E073
:100E6B0094014065E4F0A3F0900026E070051210A9
:100E7B00D18056E4FDFF1218677E187FDB1215FA3E
:100E8B00900023E060047F5980027F4E1218887E09
:100E9B00187FE01215FA900022E060047F5980025F
:100EAB007F4E121888E4FD7F011218677E187FE5CC
:100EBB001215FA12006CEF60047F3180027F301242
:100ECB0018887E187FE91215FA7F017E001212E155
:100EDB00900028E004F07006900027E004F02290C8
:100EEB000006EFF0900147E07003020F977E007F42
:100EFB0099900006E0FD12134CEF7003020F9790D0
:100F0B000099E064056003020F97A3E0FE30E70E43
:100F1B00E4900095F012173DE4900147F0227F1901
:100F2B00EE6403700F90009BE06414700790000652
:100F3B00E06F600EE4900095F012173DE4900147CE
:100F4B00F022E4FDEDC3940A748094805033ED25B8
:100F5B00E0249CF582E43400F583E0FEED25E024EB
:100F6B009DF582E43400F583E0FBEEEBFFED25E02D
:100F7B002433F582E43401F583EEF0A3EFF00D801A
:100F8B00C39000957401F0E4900147F02290000BA0
:100F9B00EDF0A3EBF0A3EAF0A3E9F0AC07A3E0704C
:100FAB0002FF22121682EF7003021038EC25E0FFCD
:100FBB007D18121825EF607590000BE0FF7D28124D
:100FCB001825EF6068121682EF6062AF04EF25E020
:100FDB004401FF7D40121825EF6052E4900010F0A1
:100FEB0090000FE0FFA3E0FEC39F503DEE2401FDF8
:100FFB00E433FCC3ED9F7480F86C9850047F018040
:10100B00027F0090000CE0FBA3E0FAA3E0F9900054
:10101B0010E0FD7C00E92DF9EC3AFA121588EF602F
:10102B000C900010E004F080B712177D2212177D90
:10103B007F0022900011EFF0A3ECF0FEA3EDF0FF88
:10104B00A3EBF0FD121163900014E0F9900012E095
:10105B00FAA3E029F582E43AF583EFF0EEFFE924F9
:10106B0001FDE433FC900012E0FAA3E02DF582EAD7
:10107B003CF583EFF0900011E0FF7D0112162990F3
:10108B000011E0640170067F01FE1212E1E4FB9097
:10109B000014E02402FFEBC39F5019900011E0FFF6
:1010AB00A3E0FCA3E02BF582E43CF583E0FD1215F5
:1010BB00C20B80DB7F027E001212E1900011E0FF79
:1010CB00E4FD12162922E4FDFF1218677E187F94A7
:1010DB001215FA12188EEF6028E4FF12175D9000BC
:1010EB0000EEF0A3EFF0900000E0FF1214929000DE
:1010FB0000E0A3E0FF1214927E187F9B1215FA807A
:10110B00077E187FA01215FAE4FD7F011218677E87
:10111B00187FAA1215FA7F011217D5EF60047F31E1
:10112B0080027F301218887E187FB01215FA7F026A
:10113B001217D5EF60047F3180027F301218887E42
:10114B00187FB41215FA7F031217D5EF60047F31A5
:10115B0080027F3012188822900015EDF0AB07AAA1
:10116B000674FFA3F0A3F0E4F9900015E0FFE9C3C8
:10117B009F505CEB29F582E43AF583E0FF90001673
:10118B00E0F0A3E06FF0E4FDEDC39408748094806D
:10119B00503A900017E030E025900016E0C313FEA4
:1011AB00A3E013FF900016EEF0A3EFF0EE64A0FEA9
:1011BB00EF6401FF900016EEF0A3EFF0800B9000B0
:1011CB0016E0C313F0A3E013F00D80BC09809A90D6
:1011DB000016E0FEA3E0FF22C0E0C083C082C0D0B7
:1011EB0075D000C004C005C006C007AD9175910055
:1011FB00309844AC99C298AF04121855A29AE433B4
:10120B006F600690012F7401F09000FAE0C39430E8
:10121B00748094805017AF04E0FE04F074C92EF56F
:10122B0082E43400F583EFF0900092E4F09001300B
:10123B00E0F46003E004F0309908C29990009474D4
:10124B0001F0AF058F91D007D006D005D004D0D0D8
:10125B00D082D083D0E032C0E0C083C082C0D075D2
:10126B00D000C004C005C006C007AD917591003019
:10127B00F844AC9AC2F8AF04121855A2FAE4336FD3
:10128B00600690012D7401F09000F9E0C394307466
:10129B008094805017AF04E0FE04F074992EF58211
:1012AB00E43400F583EFF0900091E4F090012EE030
:1012BB00F46003E004F030F908C2F9900093740174
:1012CB00F0AF058F91D007D006D005D004D0D0D089
:1012DB0082D083D0E032900015EEF0A3EFF0C390F4
:1012EB000016E094E8900015E09403402D90001B4D
:1012FB007403F0A374E8F0A37403F0A374E8F07F15
:10130B00007E367D6E7C01120C79900016E024185D
:10131B00F0900015E034FCF080C4900015E0FEA3C3
:10132B00E0FF4E601B90001BEEF0A3EFF0A37403E5
:10133B00F0A374E8F07F007E367D6E7C01120C7991
:10134B0022900011EEF0A3EFF0A3EDF0C394047420
:10135B0080948050037F0022900011E0FEA3E0FFF9
:10136B00A3E024FEFD121163900013E0F924FEFDAF
:10137B00E434FFFC900011E0FAA3E02DF582EA3C87
:10138B00F583E0B5071FE924FFFDE434FFFC900073
:10139B0011E0A3E02DF582EA3CF583E0FDEEB50507
:1013AB00047F0180027F0022900012ECF0A3EDF08D
:1013BB00900011EFF0C39403748094805043A3E02A
:1013CB00FEA3E0FF9401EE94005036AD07900011A0
:1013DB00E0FF2496F582E43400F583E0FEED6E60C9
:1013EB0020EF04FF7B787A00121511900012E0A316
:1013FB00E0FF900011E02496F582E43400F583EFD2
:10140B00F022121682EF60387D187FA0121825EF9C
:10141B00602E7D28E4FF121825EF6024E4FF1218DC
:10142B0025EF601C121682EF60167D407FA112180B
:10143B0025EF600CE4FF121588EF600412177D2274
:10144B0012177D7F0022E490002DF0900026F0A370
:10145B00F0A3F0A3F0A3F0A3F0A3F0FDFF12186725
:10146B007E187FB81215FAE4FD7F011218677E18FB
:10147B007FC91215FA7B017A007920120D5C7F016E
:10148B0012171D1210D122900002EFF0E0FFC4548E
:10149B000FFFC3940A748094805006EF2430FE80B3
:1014AB0004EF2437FEAF06121888900002E0540FA9
:1014BB00FFC3940A748094805006EF2430FF80049D
:1014CB00EF2437FF121888229000FD7405F0A374E7
:1014DB0003F0E4A3F0A37407F0E4A3F0A3740AF001
:1014EB00E49000F9F090012DF0900091F07C007DDC
:1014FB00FD7B067F0112103E9001477401F0E490D2
:10150B0000FBF0A3F022E4F591EF6401700BED60AA
:10151B0004D2858022D280801EEF6402700BED60B6
:10152B0004D2848012D290800EEF64037013ED60AE
:10153B0004D2838002D291AE02AF031212E11218D1
:10154B007822AE07E4F591EEFD7C006401700A2071
:10155B00B5047F0180027F0022ED64024C700A20EB
:10156B00B2047F0180027F0022AF06EF6403700A92
:10157B0020B1047F0180027F00227F0022AD07EDA6
:10158B00600543C004800353C0FB53C0F712183EE1
:10159B00EF7002FF22ED600AAFBDEF645060037F76
:1015AB000022ED700AAFBDEF645860037F0022E5A7
:1015BB00BC1204937F0122AC07AF05121855E4F55A
:1015CB0091EC64017014900093F0EF24FF92FB8D6B
:1015DB009A900093E0701780F822E4900094F0EF5B
:1015EB0024FF929BAF058F99900094E060FA2290B4
:1015FB000002EEF0A3EFF0900002E0FEA3E0F58214
:10160B008E83E4936017900002E475F0011204C717
:10161B0085F082F583E493FF12188880DA22E4F5D3
:10162B0091EFFB7A0064017013ED6003D38001C36B
:10163B0092B3ED6003D38001C392A522EB64024AFF
:10164B007009ED6003D38001C3928122E4F591C24E
:10165B00A3FEEEC39408748094805014C2A2EF30A2
:10166B00E7028001C392A1D2A2EF25E0FF0E80E238
:10167B00C2A2D2A3C2A322E4F59143C02053C0F768
:10168B0012183EEF7002FF22AFBDEF6408600AAF85
:10169B00BDEF641060037F002253C0DF7F0122EF98
:1016AB00540FFF25E0900006F04401F0ED6004E0DC
:1016BB004420F0900006E04440FF121657900006BD
:1016CB00E0FF12165722AD07E4FC121682EF600DF5
:1016DB00AF05EF25E0FF7D18121825AC0712177D1B
:1016EB00EF6007EC60047F0180027F0022E4F5913C
:1016FB00EFFB7A006401700AED6003C38001D392A3
:10170B00B022EB64024A7009ED6003C38001D392EF
:10171B009722900002EFF0E4FD120003900002E02C
:10172B00FF64016005EF640270077F027E001212F6
:10173B00E122E4FFEFC3940A748094805013EF25E9
:10174B00E02433F582E43401F583E4F0A3F00F8059
:10175B00E322EFC3940A748094804004E4FEFF22DA
:10176B00EF25E02433F582E43401F583E0FEA3E0BA
:10177B00FF22E4F59143C01053C0F7FFFEE5C030E4
:10178B00E40B0FBF00010EEF4E70F2FF227F012220
:10179B007F06120A83E4F591120B931217B8120904
:1017AB004F120026121451120E2780FB22E4F591E2
:1017BB00F59143B30843B408F59143B31043B41008
:1017CB0043901875BE3B75C04022EF6009D394035C
:1017DB007480948040037F002274952FF582E4344B
:1017EB0000F583E0FF229000FD7401F0EF4480A32D
:1017FB00F0A3EDF07C007DFD7B037F0212103E22F7
:10180B00787FE4F6D8FD9000007FFF7E08E4F0A31C
:10181B00DFFCDEFA75819002179B8FBC53C0F71269
:10182B00183EEF7002FF22E5BDB505047F01800273
:10183B007F0022E4FFFEE5C05408700B0FBF0001D0
:10184B000EEF4E70F1FF227F0122E4FEEF600A548F
:10185B00016EFEEFC313FF80F3AF0622EF7003FFA1
:10186B0080027F40EF2D4480FF12171D22E4F5917B
:10187B00C285C284C283C280C290C291227D0112F2
:10188B00000322900095E0FF2234303030383A00CC
:10189B00204F4B20002D2D2D2D2057414954005208
:1018AB004C59313D0020323D0020333D0050524514
:1018BB0050414944204946205445535420004D5330
:1018CB00353150433041452020202020202020005E
:1018DB005254433A002045453A0049523A002052AF
:0A18EB0053313A4D41535445520069
:00000001FF
