:10000000020F4CBB010689828A83E0225002E7225C
:10001000BBFE02E32289828A83E49322BB010CE5C2
:100020008229F582E5833AF583E0225006E92582AC
:10003000F8E622BBFE06E92582F8E222E58229F5F0
:1000400082E5833AF583E49322BB010989828A839E
:10005000F8E028F022500327F722BBFE05F8E3283A
:10006000F3228A838982F8E4932822BB010FF8E502
:100070008229F582E5833AF583E028F0225009C50C
:100080008229F8E58226F622BBFE09C58229F8E21C
:100090002582F222F8EA2583F583E9932822BB0121
:1000A0000689828A83F0225002F722BBFE01F322E6
:1000B000F8BB010DE58229F582E5833AF583E8F086
:1000C000225006E92582C8F622BBFE05E92582C832
:1000D000F222A3F8E0C5F025F0F0E5821582700267
:1000E0001583E0C838F0E822E88FF0A4CC8BF0A4A8
:1000F0002CFCE98EF0A42CFC8AF0EDA42CFCEA8EFA
:10010000F0A4CDA8F08BF0A42DCC3825F0FDE98F1C
:10011000F0A42CCD35F0FCEB8EF0A4FEA9F0EB8F13
:10012000F0A4CFC5F02ECD39FEE43CFCEAA42DCEE0
:1001300035F0FDE43CFC2275F008758200EF2FFFDE
:10014000EE33FECD33CDCC33CCC58233C5829BEDAF
:100150009AEC99E58298400CF582EE9BFEED9AFDB3
:10016000EC99FC0FD5F0D6E4CEFBE4CDFAE4CCF963
:10017000A88222B800C1B90059BA002DEC8BF084D6
:10018000CFCECDFCE5F0CBF97818EF2FFFEE33FEA4
:10019000ED33FDEC33FCEB33FB10D703994004EB5C
:1001A00099FB0FD8E5E4F9FA227818EF2FFFEE3328
:1001B000FEED33FDEC33FCC933C910D7059BE99A3A
:1001C0004007EC9BFCE99AF90FD8E0E4C9FAE4CCCB
:1001D000FB2275F010EF2FFFEE33FEED33FDCC3335
:1001E000CCC833C810D7079BEC9AE899400AED9B1E
:1001F000FDEC9AFCE899F80FD5F0DAE4CDFBE4CCFD
:10020000FAE4C8F922E8600FECC313FCED13FDEE2D
:1002100013FEEF13FFD8F122ECF0A3EDF0A3EEF004
:10022000A3EFF022A8828583F0D083D08212023B14
:1002300012023B12023B12023BE473E493A3C58318
:10024000C5F0C583C8C582C8F0A3C583C5F0C58302
:10025000C8C582C822D083D082F8E493701274019A
:1002600093700DA3A393F8740193F5828883E473CC
:10027000740293B5F0067403936860E9A3A3A3A383
:1002800080D8900000120218E4F591900004E01468
:100290006054147003020374240260030203FB75AC
:1002A0009850438920438780E4F591438E10F5915F
:1002B00053C4DF7B10FAF9F8900000E0FCA3E0FDE6
:1002C000A3E0FEA3E0FF120173900005E0F8A3E0B5
:1002D000F9A3E0FAA3E0FB120173EFF404F58D43F8
:1002E000884043A8102275985043878053C4F8E48F
:1002F000F59143C4207B10FAF9F8900000E0FCA3CC
:10030000E0FDA3E0FEA3E0FF120173900005E0F81A
:10031000A3E0F9A3E0FAA3E0FB120173C3E49FFF9B
:10032000E49EFE74019DFDE49CFC78081202058F9A
:10033000C6E47B10FAF9F8900000E0FCA3E0FDA30E
:10034000E0FEA3E0FF120173900005E0F8A3E0F9DE
:10035000A3E0FAA3E0FB120173C3E49FFFE49EFE57
:1003600074019DFDE49CFCEFE48FC5F59143C40846
:1003700043A8102275F85075C480E47B10FAF9F890
:10038000900000E0FCA3E0FDA3E0FEA3E0FF12016B
:1003900073900005E0F8A3E0F9A3E0FAA3E0FB12F4
:1003A0000173C3E49FFFE49EFE74019DFDE49CFC89
:1003B00078081202058FC6E47B10FAF9F890000065
:1003C000E0FCA3E0FDA3E0FEA3E0FF1201739000B8
:1003D00005E0F8A3E0F9A3E0FAA3E0FB120173C380
:1003E000E49FFFE49EFE74019DFDE49CFCEFE48F1E
:1003F000C5F59143C408F591439C0122E4F591EFC2
:1004000024F9600C14600E2402700D75A638800863
:1004100075A630800375A630E4F591A2AF9203C2B1
:10042000AF75C7AA75C755439F01A20392AFF5A741
:1004300075AF04F591A2AF9203C2AF75C7AA75C795
:100440005543A401A20392AF85AE0805A6F591A27B
:10045000AF9203C2AF75C7AA75C75543A401A203E3
:1004600092AF85AE09EF24F87076E50825E0FFE548
:100470000954012FFF54C0F50BEF543FF50A74F2F5
:100480002FFF75AF0C75A601E4F5A7F591A2AF9209
:1004900003C2AF75C7AA75C75543A401A20392AFA3
:1004A000AEAEEE644B600EAEAEEE64526007AEAE22
:1004B000EE64537026E50AC3940F7480948050173D
:1004C000E50BFD6440600AED64806005ED64C0707A
:1004D0000A74F22FFF800474FC2FFFEFC313F5089A
:1004E00075C7AA75C75585088475C7AA75C7558588
:1004F0000985E4F591A2AF9203C2AF75C7AA75C78B
:1005000055539FFEA20392AF5387EF22120FA7C24B
:10051000B4C2B3C2A5C281D2B0D297C2A1C2A2C294
:10052000A3E4F59153B1FE43B201F59153B1FD43FC
:10053000B202F59153B1F743B208F59153B1EF43CD
:10054000B210F59153B1DF43B220F59153B3FE439E
:10055000B401F59153B3FD43B402F59153B37F4316
:10056000B4807591025389FD438A027591025389C3
:10057000FB438A047591025389F7438A08759102F7
:100580005389DF438A20F59153ACFE43AD01F591C9
:1005900053ACF743AD08F59153ACEF43AD10F59173
:1005A00043AC0253ADFDF59143AC0453ADFBF59163
:1005B00043AC2053ADDF759102438910538AEFF5A8
:1005C0009153AC7F53AD7FF59143AC4053ADBFF534
:1005D0009153B1BF53B2BFF59143B18053B27FF590
:1005E0009143B30843B408F59143B31043B410F5F5
:1005F0009122900008120218E4F591F591538EF7BC
:10060000F5915389F04389017B407A42790FF89044
:100610000008E0FCA3E0FDA3E0FEA3E0FF120173ED
:10062000A804A905AA06AB0790000EE0FEA3E0FF10
:10063000E4FCFD1200E8E47B0CFAF9F8120173C344
:1006400074FF9FFF74FF9EFEE49DFDE49CFCEFE4BD
:10065000900010EFF07B407A42790F78009000080C
:10066000E0FCA3E0FDA3E0FEA3E0FF120173A804F9
:10067000A905AA06AB0790000EE0FEA3E0FFE4FC8C
:10068000FD1200E8E47B0CFAF9F8120173C374FF61
:100690009FFF74FF9EFEE49DFDE49CFC780812021F
:1006A0000590000CE07002A3E06024900010E0F5DB
:1006B0008A8F8C438810308DFD5388DF5388EF90EC
:1006C000000DE024FFF090000CE034FFF080D2E455
:1006D000F58AF58C227B017A00791D120D027F01CB
:1006E000120CC7900000EFF07F02120CC7900001BF
:1006F000EFF07F03120CC7900002EFF0900000E0D3
:10070000600B900021E070057F011209C890000184
:10071000E0600B900022E070057F021209C8900093
:1007200002E06018900023E0701290001AE064016B
:10073000F070097B017A0079141207A3900000E0A1
:10074000900021F0900001E0900022F0900002E083
:10075000900023F0C390001CE094F490001BE09400
:1007600001402AE4F0A3F090001AE07005120A3963
:10077000801BE4FDFF120F967E107F28120D77E498
:10078000FD7F01120F967E107F39120D777F017E5B
:1007900000120AA790001CE004F0700690001BE015
:1007A00004F022900003EBF0A3EAF0A3E9F07F50FD
:1007B000120E4E900003E0FBA3E0FAA3E0F9EF1263
:1007C000009E7F51120E4E900003E0FBA3E0FAA3BF
:1007D000E0F9900001EF1200B0900002E41200B0C6
:1007E000900003E41200B0900004E41200B0900006
:1007F00005E41200B01200036029900003E0FBA39F
:10080000E0FAA3E02404F9E43AFA120C06EF6013CC
:10081000900003E0FBA3E0FAA3E0F990000274016A
:100820001200B0900003E0FBA3E0FAA3E0F990000F
:100830000112001C60377B017A0079069000127467
:1008400007F07D027F51120922EF6021900006E03F
:10085000547FFF900003E0FBA3E0FAA3E0F99000CF
:1008600005EF1200B090000374011200B022E4FD05
:10087000FF120F967E0F7FD7120D77900000740144
:10088000F0900000E0FFD394027480948050257DA6
:1008900001120E757FB47E00120AA7900000E0FFDF
:1008A000E4FD120E757F647E00120AA7900000E03E
:1008B00004F080CD7F01120FB77F787E00120AA767
:1008C000E4FF120FB77F507E00120AA77F01120FBC
:1008D000B77F787E00120AA7E4FF120FB7900000DE
:1008E0007401F0900000E0FFD39403748094805072
:1008F0002D7B787A007D01120C8B7F507E00120ACE
:10090000A7900000E0FF7B787A00E4FD120C8B7F5B
:10091000507E00120AA7900000E004F080C5120F7C
:10092000A72290000EEDF0A3EBF0A3EAF0A3E9F00C
:10093000AC07A3E07002FF22120DFFEF7003020963
:10094000C2EC25E0FF7D18120F66EF607590000E77
:10095000E0FF7D28120F66EF6068120DFFEF606206
:10096000AF04EF25E04401FF7D40120F66EF6052B7
:10097000E4900013F0900012E0FFA3E0FEC39F504C
:100980003DEE2401FDE433FCC3ED9F7480F86C98C8
:1009900050047F0180027F0090000FE0FBA3E0FA8B
:1009A000A3E0F9900013E0FD7C00E92DF9EC3AFAA0
:1009B000120D3DEF600C900013E004F080B7120EB2
:1009C000DA22120EDA7F0022900003EFF07E00643C
:1009D00001700AA37410F0A3744AF08010EF64024F
:1009E0004E70559000047410F0A37457F0900003FB
:1009F000E0FF7D01120DA67F027E00120AA7900083
:100A000004E0FEA3E0F5828E83E493601A90000375
:100A1000E0FFA3E475F0011200D285F082F583E4D3
:100A200093FD120F3280D77F027E00120AA790003A
:100A300003E0FFE4FD120DA622E4FDFF120F967EF7
:100A40000F7FE9120D77900017E060047F59800254
:100A50007F4E120FD17E0F7FEE120D77900016E0C1
:100A600060047F5980027F4E120FD17E0F7FF312F8
:100A70000D77120FC4EF60047F3180027F30120FB8
:100A8000D1E4FD7F01120F967E0F7FF8120D779053
:100A9000001DE0FF120C4A7E0F7FFE120D779000C2
:100AA0001EE0FF120C4A22900006EEF0A3EFF0C306
:100AB000900007E094E8900006E09403402D900039
:100AC0000C7403F0A374E8F0A37403F0A374E8F0CB
:100AD0007F007E367D6E7C011205F2900007E024D7
:100AE00018F0900006E034FCF080C4900006E0FEB0
:100AF000A3E0FF4E601B90000CEEF0A3EFF0A37498
:100B000003F0A374E8F07F007E367D6E7C01120551
:100B1000F22253A87FE4F59153AC7F53AD7FF5915A
:100B200043AC4053ADBFF59153B1BF53B2BFF59144
:100B300043B18053B27FF5919000047402F0A31288
:100B40000224000025807F007E367D6E7C0112022B
:100B500082E4900004F0A3120224000025807F00AC
:100B60007E367D6E7C01120282E4FD7F01120DA6AD
:100B7000E4FD7F02120DA622E4900021F0A3F0A371
:100B8000F090001AF0A3F0A3F0A3F0A3F0A3F0A359
:100B9000F0FDFF120F967E107F05120D77E4FD7FAA
:100BA00001120F967E107F16120D7712086E7B01D0
:100BB0007A0079141207A37F01120EBA120A3922A1
:100BC0007F287E00120AA7E4FD7F03120E277F050F
:100BD0007E00120AA7E4FD7F03120E277F017E002C
:100BE000120AA7E4FD7F03120E27E4FD7F02120E16
:100BF000277F28120EBA7F0C120EBA7F06120EBA89
:100C00007F01120EBA22120DFFEF60387D187FA00F
:100C1000120F66EF602E7D28E4FF120F66EF60244E
:100C2000E4FF120F66EF601C120DFFEF60167D40AF
:100C30007FA1120F66EF600CE4FF120D3DEF600420
:100C4000120EDA22120EDA7F0022900003EFF0E09B
:100C5000FFC4540FFFC3940A748094805006EF249D
:100C600030FE8004EF2437FEAF06120FD190000350
:100C7000E0540FFFC3940A748094805006EF243030
:100C8000FF8004EF2437FF120FD122E4F591EF64C7
:100C900001700BED6004D2858022D280801EEF644B
:100CA00002700BED6004D2848012D290800EEF644B
:100CB000037013ED6004D2838002D291AE02AF03C1
:100CC000120AA7120FA722AE07E4F591EEFD7C00F1
:100CD0006401700A20B5047F0180027F0022ED6468
:100CE000024C700A20B2047F0180027F0022AF060E
:100CF000EF6403700A20B1047F0180027F00227F2D
:100D00000022E4F59130F817900003E59A1200B044
:100D1000C2F890000274011200B074011200493050
:100D2000981A900003E5991200B0C29890000274DE
:100D3000021200B0900001740112006B22AD07EDA9
:100D4000600543C004800353C0FB53C0F7120F7FFC
:100D5000EF7002FF22ED600AAFBDEF645060037FC9
:100D60000022ED700AAFBDEF645860037F0022E5FA
:100D7000BC12009E7F0122900003EEF0A3EFF090E2
:100D80000003E0FEA3E0F5828E83E49360179000F9
:100D900003E475F0011200D285F082F583E493FF3D
:100DA000120FD180DA22E4F591EFFB7A0064017032
:100DB00013ED6003D38001C392B3ED6003D38001D0
:100DC000C392A522EB64024A7009ED6003D380014F
:100DD000C3928122E4F591C2A3FEEEC3940874800D
:100DE00094805014C2A2EF30E7028001C392A1D2D6
:100DF000A2EF25E0FF0E80E2C2A2D2A3C2A322E4AA
:100E0000F59143C02053C0F7120F7FEF7002FF220D
:100E1000AFBDEF6408600AAFBDEF641060037F00F0
:100E20002253C0DF7F0122EF540FFF25E09000071F
:100E3000F04401F0ED6004E04420F0900007E0444D
:100E400040FF120DD4900007E0FF120DD422AD0731
:100E5000E4FC120DFFEF600DAF05EF25E0FF7D18FC
:100E6000120F66AC07120EDAEF6007EC60047F0128
:100E700080027F0022E4F591EFFB7A006401700AA2
:100E8000ED6003C38001D392B022EB64024A700983
:100E9000ED6003C38001D3929722900005EFF0A389
:100EA000EDF0900005E0FFC4540FFF120E279000F4
:100EB00005E0FFA3E0FD120E2722900003EFF0E40F
:100EC000FD120E9A900003E0FF64016005EF6402DA
:100ED00070077F027E00120AA722E4F59143C0103A
:100EE00053C0F7FFFEE5C030E40B0FBF00010EEF6B
:100EF0004E70F2FF227F01227F061203FCE4F5917F
:100F000012050C120F15120B12120BC0120B7812D5
:100F100006D580FB22E4F591F59143B30843B4086C
:100F2000F59143B31043B41043901875BE3B75C0A0
:100F30004022E4F591EF640170088D9A30F9FDC20A
:100F4000F922AF058F993099FDC29922787FE4F696
:100F5000D8FD9000007FFF7E08E4F0A3DFFCDEFAFE
:100F6000758190020EF88FBC53C0F7120F7FEF709F
:100F700002FF22E5BDB505047F0180027F0022E467
:100F8000FFFEE5C05408700B0FBF00010EEF4E705E
:100F9000F1FF227F0122EF7003FF80027F40EF2DDF
:100FA0004480FF120EBA22E4F591C285C284C28346
:100FB000C280C290C29122E4F591EF6003D3800118
:100FC000C392B42275910220A4047F0180027F00A5
:100FD000227D01120E9A224F5554505554205445EB
:100FE0005354202020202020005254433A00204512
:100FF000453A002049523A00343835313A0020341D
:101000003835323A00505245504149442049462033
:101010005445535420004D53353150433041452001
:1010200020202020202020004B4559313D343835E8
:101030002D31205458202020004B4559323D343862
:10104000352D3220545820202000504F525431204A
:10105000544553540D0A00504F52543220544553B6
:04106000540D0A0021
:00000001FF
